:100000009EC10000CCC10000CAC10000C8C10000F0
:10001000C6C10000C4C10000C2C10000C0C10000D0
:10002000BEC10000BCC10000BAC10000B8C10000E0
:10003000B6C10000B4C10000B2C10000B0C10000F0
:10004000AEC10000ACC10000AAC10000A8C1000000
:10005000A6C10000A4C10000A2C1000075C3000039
:100060009EC100003BC3000010C3000098C1000007
:1000700096C1000094C1000092C1000090C1000030
:100080008EC100008CC100008AC1000088C1000040
:1000900086C1000084C1000082C1000080C1000050
:1000A0007EC100007CC100007AC1000078C1000060
:1000B00076C1000074C1000072C1000070C1000070
:1000C0006EC100006CC100006AC1000068C1000080
:1000D00066C1000064C1000062C1000060C1000090
:1000E0005EC1000007634236B79BD8A71A3968562D
:1000F00018AEBAAB558C1D3CB7CC5763BD6DEDFD4A
:10010000753EF6177231BF000000803F0800000006
:10011000BE922449123EABAAAA2ABECDCCCC4C3EFC
:1001200000000080BEABAAAAAA3E00000000BF00EB
:100130000000803F0000000000084178D3BB4387E7
:10014000D1133D190E3CC3BD4282AD2B3E68EC82FB
:1001500076BED98FE1A93E4C80EFFFBE01C4FF7F80
:100160003F000000000000407A10F35A00A0724ED9
:1001700018090010A5D4E80000E87648170000E44C
:100180000B54020000CA9A3B000000E1F505000094
:1001900080969800000040420F000000A0860100F9
:1001A0000000102700000000E803000000006400C9
:1001B000000000000A000000000001000000000034
:1001C0002C76D888DC674F0823DFC1DFAE59E1B158
:1001D000B796E5E3E453C63AE651997696E8E6C267
:1001E0008426EB898C9B62ED407C6FFCEFBC9C9F6E
:1001F00040F2BAA56FA5F490055A2AF75C936B6C90
:10020000F9676DC11BFCE0E40D47FEF520E6B50083
:10021000D0ED902E0300943577050080841E0800F1
:1002200000204E0A000000C80C333333330F986EA1
:1002300012831141EF8D2114893BE65516CFFEE65E
:10024000DB18D1844B381BF77C1D901DA4BBE42424
:10025000203284725E228100C9F124ECA1E53D27A1
:1002600000002200250028002B002E003100340061
:1002700002010000050108010B010000210024001B
:1002800027002A002D003000330001010000040186
:1002900007010A01000020002300260029002C008D
:1002A0002F003200000100000301060109010505CD
:1002B0000505070508080808020202020A0A0808DC
:1002C000040404040101010101010101030303030A
:1002D00003030303040707070C0C0C0C0C0C0C0C99
:1002E0000202020206060606060606060B0B0B0BAA
:1002F0000B0B0B0B010210202008081020401020CF
:1003000040800201020108040201010204081020D9
:1003100040808040201008040201800402018040D7
:100320002010080402010804020101020408102040
:10033000408001020408102040803304DB061124B1
:100340001FBECFEFD1E2DEBFCDBF00E00CBF24E087
:10035000A2E3B2E001C01D92A632B207E1F712E0BB
:10036000A0E0B2E0ECE1F3E200E00BBF02C00790D6
:100370000D92A233B107D9F711E0CEE9D1E000E048
:1003800006C021970109802FFE010E94870CCD39FC
:10039000D10780E00807A9F7A0D20C947D1130CED8
:1003A000CF92DF92EF92FF920F931F93CF93DF9341
:1003B0006C017A018B01C0E0D0E0CE15DF0589F039
:1003C000D8016D918D01D601ED91FC910190F081E4
:1003D000E02DC6011995892B11F47E0102C02196EA
:1003E000ECCFC701DF91CF911F910F91FF90EF905C
:1003F000DF90CF900895FC01918D828D981761F068
:10040000828DDF01A80FB11D5D968C91928D9F5F4B
:100410009F73928F90E008958FEF9FEF0895FC01F6
:10042000918D828D981731F0828DE80FF11D858DA9
:1004300090E008958FEF9FEF0895FC01918D228D3C
:10044000892F90E0805C9F4F821B91098F739927C1
:1004500008958FE793E0F1DF21E0892B09F420E094
:10046000822F0895FC01848DDF01A80FB11DA35ACE
:10047000BF4F2C91848D90E001968F739927848FC4
:10048000A689B7892C93A089B1898C9180648C93BB
:10049000938D848D981306C00288F389E02D8081A6
:1004A0008F7D80830895EF92FF920F931F93CF93D8
:1004B000DF93EC0181E0888F9B8D8C8D981305C0B4
:1004C000E889F989808185FD23C0F62E0B8D10E027
:1004D0000F5F1F4F0F731127E02E8C8DE8120BC09A
:1004E0000FB607FCFACFE889F989808185FFF5CF3F
:1004F000CE01B8DFF2CF8B8DFE01E80FF11DE35A7C
:10050000FF4FF0820B8FEA89FB898081806207C0F0
:10051000EE89FF896083E889F9898081806480831E
:1005200081E090E0DF91CF911F910F91FF90EF90CC
:100530000895CF93DF93EC01888D8823C1F0EA8979
:10054000FB89808185FD05C0A889B9898C9186FDCC
:100550000EC00FB607FCF5CF808185FFF2CFA889CA
:10056000B9898C9185FFEDCFCE017CDFE8CFDF919B
:10057000CF91089580E090E0892B19F06ADF811116
:1005800025C080E090E0892B41F080E090E0892B4D
:1005900021F00E94000081111CC080E090E0892BB6
:1005A00041F080E090E0892B21F00E940000811151
:1005B00013C080E090E0892BA1F080E090E0892BCF
:1005C00081F00E94000081110AC008950E9400007D
:1005D000D8CF0E940000E1CF0E940000EACF0C9427
:1005E000000008950E94A00E0F931F93CF93DF93F6
:1005F000EC0188819981009729F02A813B81261797
:10060000370788F48B016F5F7F4F0E94BC0D009706
:1006100061F0998388831B830A832C813D81232B7E
:1006200011F4FC01108281E001C080E0DF91CF91E4
:100630001F910F910895EF92FF920F931F93CF9305
:10064000DF93EC017B018A01BA01CEDF2881398179
:1006500081110DC02115310519F0C9010E94240D29
:10066000198218821D821C821B821A8206C01D8379
:100670000C83B701C9010E94AD0ECE01DF91CF916D
:100680001F910F91FF90EF9008951F920F920FB658
:100690000F9211240BB60F922F933F934F935F93BA
:1006A0006F937F938F939F93AF93BF93EF93FF933A
:1006B0008FE793E0D7DEFF91EF91BF91AF919F91CC
:1006C0008F917F916F915F914F913F912F910F90FB
:1006D0000BBE0F900FBE0F901F9018951F920F9298
:1006E0000FB60F9211240BB60F922F938F939F93F7
:1006F000EF93FF93E0918F03F09190038081E0915D
:100700009503F091960382FD12C090818091980329
:100710008F5F8F7320919903821751F0E0919803B6
:10072000F0E0E158FC4F958F8093980301C08081E1
:10073000FF91EF919F918F912F910F900BBE0F9092
:100740000FBE0F901F9018951F920F920FB60F9229
:1007500011242F933F938F939F93AF93BF938091D7
:10076000630390916403A0916503B0916603309197
:10077000360223E0230F2D3720F40196A11DB11D71
:1007800005C026E8230F0296A11DB11D2093360255
:100790008093630390936403A0936503B09366030F
:1007A0008091320290913302A0913402B0913502CF
:1007B0000196A11DB11D8093320290933302A09344
:1007C0003402B0933502BF91AF919F918F913F91C9
:1007D0002F910F900FBE0F901F901895CF92DF9220
:1007E000EF92FF920F931F93E82FF92F05C001504E
:1007F00011092109310961F1908196239417B9F308
:1008000005C0015011092109310911F19081962388
:100810009413F7CFC12CD12CE12CF12C0AC08FEF0F
:10082000C81AD80AE80AF80A0C151D052E053F0556
:1008300079F080818623841791F36C2D7D2D8E2D88
:100840009F2D1F910F91FF90EF90DF90CF90089513
:1008500060E070E080E090E01F910F91FF90EF90DA
:10086000DF90CF900895EFE7F3E01382128288EED5
:1008700093E0A0E0B0E084839583A683B7838AE009
:1008800092E09183808385EC90E09587848784EC67
:1008900090E09787868780EC90E0918B808B81EC4D
:1008A00090E0938B828B82EC90E0958B848B86EC2E
:1008B00090E0978B868B118E128E138E148EECE146
:1008C000F4E011821082138212821582148240E0B9
:1008D00050E061E372E0CF01AECECF93DF93CDB7AE
:1008E000DEB72E970FB6F894DEBF0FBECDBF78945B
:1008F00084B5826084BD84B5816084BD85B5826025
:1009000085BD85B5816085BD80916E0081608093D5
:100910006E0010928100809181008260809381003E
:10092000809181008160809381008091800081604E
:10093000809380008091B10084608093B1008091A9
:10094000B00081608093B0008091910082608093BC
:10095000910080919100816080939100809190003E
:100960008160809390008091A10082608093A100BB
:100970008091A10081608093A1008091A00081609E
:100980008093A00080912101826080932101809159
:1009900021018160809321018091200181608093F9
:1009A000200180917A00846080937A0080917A009F
:1009B000826080937A0080917A00816080937A00CF
:1009C00080917A00806880937A001092C100E09153
:1009D0008F03F091900382E08083E0918B03F0918C
:1009E0008C031082E0918D03F0918E0380E180836F
:1009F00010929703E0919303F091940386E0808333
:100A0000E0919103F0919203808180618083E09175
:100A10009103F0919203808188608083E09191033B
:100A2000F0919203808180688083E0919103F0913E
:100A3000920380818F7D8083ECEFF2E02491E6EBDE
:100A4000F2E084918823C9F090E0880F991FFC019F
:100A5000E658FD4F45915491FC01E05AFD4FA59198
:100A6000B4919FB7F894FA01808120958223808306
:100A70008C91E22FE823EC939FBF2FB7F8948091DD
:100A8000630390916403A0916503B09166032FBF47
:100A90008093730390937403A0937503B0937603CC
:100AA000CE0101965C0196E1292E92E0392E2DECC3
:100AB000E22E22E0F22E3CE2832E32E0932E47E338
:100AC000C42E42E0D42EECEFF2E06491E6EBF2E0CB
:100AD0008491E82FF0E0EE0FFF1FEC56FD4F85915B
:100AE000949100E412E42FE030E040E077DE6115FD
:100AF00071058105910539F0DC01CB010196A11D3D
:100B0000B11DBF7003C080E090E0DC0180937B03E7
:100B100090937C03A0937D03B0937E034090770372
:100B2000509078036090790370907A03840D951D3E
:100B3000A61DB71D8093770390937803A093790344
:100B4000B0937A032FB7F894809163039091640374
:100B5000A0916503B09166032FBF4091730350913C
:100B600074036091750370917603841B950BA60B3B
:100B7000B70B88389341A105B10508F41AC16091FB
:100B80007703709178038091790390917A039CD3D5
:100B900020E030E543E457E4EDD42B013C016093C1
:100BA0006F0370937003809371039093720320E03E
:100BB00030E040E450E446D52DEC3CEC4CE85FE3FB
:100BC000C0D36B877C878D879E87A3019201C30169
:100BD000B201B7D323E333E343E750E4B2D39B013D
:100BE000AC016B857C858D859E855FD46B877C870A
:100BF0008D879E8720E030E042E054E4C301B201DB
:100C0000A0D39B01AC016B857C858D859E854ED4E0
:100C100022E538EB4EE15FE349D42B013C016093C0
:100C20006B0370936C0380936D0390936E0326E6C1
:100C300036E646E65FE36091670370916803809152
:100C4000690390916A037DD36B877C878D879E872C
:100C50002DEC3CEC4CEC5DE3C301B20172D39B0183
:100C6000AC016B857C858D859E8520D46093670360
:100C7000709368038093690390936A03850122E06F
:100C800043E09ED0BF92AF921F921F923F922F924D
:100C9000FF92EF920E94B40ED7010D900020E9F769
:100CA000EDECF2E09D01215031090FB6F894DEBF62
:100CB0000FBECDBF80E090E0E217F30729F041912D
:100CC000642F70E04A3249F59F938F939F928F92E1
:100CD000DF92CF920E94B40E0F900F900F900F9062
:100CE0000F900F90F70101900020E9F73197AF01C5
:100CF0004D5C52406DEC72E08CE194E09CDCF601BE
:100D000001900020E9F73197E753F240609020040A
:100D100070902104309701F105C0443269F28627B2
:100D20009727CACF6E0E7F1EB3018CE194E05CDC86
:100D3000882391F020911C0430911D04809120049F
:100D40009091210467E372E0820F931F0E94AD0E21
:100D5000709221046092200440912004509121045B
:100D600060911C0470911D048FE793E019DB42E051
:100D700050E06FE272E08FE793E012DB10927703AE
:100D8000109278031092790310927A032FB7F89497
:100D90008091630390916403A0916503B091660311
:100DA0002FBF8093730390937403A0937503B09344
:100DB0007603E0DB88CE80911C0490911D0444C62C
:100DC000EF920F931F93CF93DF93E80147FD02C08B
:100DD00034E001C034E1E42F440FFF0BF7FF03C000
:100DE000F195E195F109E32E022F2E2FAE0107D0E8
:100DF000CE01DF91CF911F910F91EF9008954F9207
:100E00005F926F927F929F92AF92BF92CF92DF924A
:100E1000EF92FF920F931F93CF93DF93CDB7DEB77F
:100E200029970FB6F894DEBF0FBECDBF6A01122F0F
:100E3000B02E2BE3201720F0FF24F394F00E02C015
:100E4000BCE3FB2E0F2D27E0AE014F5F5F4F64D157
:100E5000AC018981982F9970913031F0E1FC06C086
:100E6000E0FE06C090E205C09DE203C09BE201C027
:100E700090E0EE2DE07183FF3CC0911102C083E051
:100E800001C084E0811718F4212F281B01C020E045
:100E9000E1110BC0F601822F30E2882319F0319363
:100EA0008150FBCFC20ED11C20E0992329F0D6013E
:100EB0009C93F60131966F01C6010396E2FE0AC0CB
:100EC0003EE4D6013C9341E411964C93119712965F
:100ED0003C9306C03EE6F601308341E6418332830F
:100EE000FC01322F40E2332309F442C041933150D8
:100EF000FACF82FF44C0911102C083E001C084E0B8
:100F0000811718F4212F281B01C020E0E1110BC02C
:100F1000F601822F30E2882319F031938150FBCF04
:100F2000C20ED11C20E0992329F0D6019C93F60132
:100F300031966F01C6010396E2FE0BC039E4D6017B
:100F40003C933EE411963C93119736E412963C9301
:100F500007C039E6F60130833EE6318336E6328358
:100F6000FC01322F40E2332319F041933150FBCF83
:100F7000FC01E20FF11D10828EEF9FEFB7C0F1E090
:100F8000911101C0F0E06F2F70E01416150624F4E3
:100F90009A012F5F3F4F02C021E030E0260F371F3C
:100FA000BB2029F06B2D70E06F5F7F4F02C060E0C7
:100FB00070E0260F371F612F70E0261737071CF4EB
:100FC000121B212F01C020E03E2D387159F4D601AB
:100FD000322F60E2332319F06D933150FBCFC20EF4
:100FE000D11C20E0FF2331F0D6019C93B6016F5F46
:100FF0007F4F6B01E1110BC0F601922F30E3992373
:1010000019F031939150FBCFC20ED11C20E09F2DDF
:10101000940F3A81782F7071A72E84FF03C031336B
:1010200009F49150191624F4993018F098E001C091
:1010300091E0E42F852F57FF02C0E0E080E06E2FA3
:10104000782FE0E0F0E0AEE29A2E3A01691A7108DA
:101050002A01461A570A0B2D10E011950195110926
:101060006F3F8FEF780729F4D6019C92C601019655
:101070006C014617570784F0661677066CF47F01FB
:10108000E40CF51CA1E0B0E0AC0FBD1FEA0EFB1EA6
:10109000D7011196BC9002C090E3B92E615071093E
:1010A0003196C60101967C016017710724F0D601C4
:1010B000BC926C01D5CF6417750741F4363320F428
:1010C000353321F4A11002C081E3B82EF601B082BD
:1010D000F701822F90E2882319F091938150FBCF82
:1010E000F701E20FF11D108280E090E029960FB623
:1010F000F894DEBF0FBECDBFDF91CF911F910F914E
:10110000FF90EF90DF90CF90BF90AF909F907F9037
:101110006F905F904F900895283008F027E03327B4
:10112000DA01990F311D87FD916000966105710507
:1011300039F432602E5F3D9330E32A95E1F708954C
:101140009F3F30F080387105610509F03C5F3C5FDE
:101150003D93913008F08068911DDF93CF931F93EA
:101160000F93FF92EF92192F987F9695E92F9695FE
:101170009695E90FFF27E054FE4F99273327EE2479
:10118000FF24A701E70105900894079428F4360F7F
:10119000E71EF81E491F511D660F771F881F991FF4
:1011A0000694A1F70590079428F4E70EF81E491F4E
:1011B000561FC11D770F881F991F661F0694A1F740
:1011C0000590079428F4F80E491F561FC71FD11D1C
:1011D000880F991F661F771F0694A1F70590079443
:1011E00020F4490F561FC71FD81F990F661F771F7E
:1011F000881F0694A9F784911095177041F0D69531
:10120000C79557954795F794E7941A95C1F7E6E681
:10121000F1E068941590159135916591959105903F
:101220007FE27395E118F10A430B560BC90BD00905
:10123000C0F7E10CF11E431F561FC91FD01D7EF4DD
:10124000703311F48A95E6CFE894015030F0080F1E
:101250000AF40027021708F4202F2395022F7A336F
:1012600028F079E37D932A95E9F710C07D932A95BC
:1012700089F6069497956795379517951794E11811
:10128000F10A430B560BC90BD00998F023957E91B8
:1012900073957A3308F070E37C932013B8F77E914E
:1012A00070617D9330F0839571E37D9370E32A95AF
:1012B000E1F71124EF90FF900F911F91CF91DF91F3
:1012C000992787FD90950895E89409C097FB3EF40F
:1012D00090958095709561957F4F8F4F9F4F992383
:1012E000A9F0F92F96E9BB279395F6958795779501
:1012F0006795B795F111F8CFFAF4BB0F11F460FFC1
:101300001BC06F5F7F4F8F4F9F4F16C0882311F018
:1013100096E911C0772321F09EE8872F762F05C02C
:10132000662371F096E8862F70E060E02AF09A95C7
:10133000660F771F881FDAF7880F9695879597F9BC
:1013400008950BD078C069D028F06ED018F095239E
:1013500009F05AC05FC01124A2C07ED0A0F3959FAF
:10136000D1F3950F50E0551F629FF001729FBB278C
:10137000F00DB11D639FAA27F00DB11DAA1F649F38
:101380006627B00DA11D661F829F2227B00DA11DEB
:10139000621F739FB00DA11D621F839FA00D611D71
:1013A000221F749F3327A00D611D231F849F600D92
:1013B000211D822F762F6A2F11249F5750408AF0CB
:1013C000E1F088234AF0EE0FFF1FBB1F661F771F57
:1013D000881F91505040A9F79E3F510570F014C0EE
:1013E0005EC05F3FECF3983EDCF38695779567959A
:1013F000B795F795E7959F5FC1F7FE2B880F911D75
:101400009695879597F9089597F99F6780E870E01A
:1014100060E008959FEF80EC089500240A9416166A
:10142000170618060906089500240A9412161306D2
:10143000140605060895092E0394000C11F4882360
:1014400052F0BB0F40F4BF2B11F460FF04C06F5F7C
:101450007F4F8F4F9F4F089557FD9058440F551F52
:1014600059F05F3F71F04795880F97FB991F61F026
:101470009F3F79F087950895121613061406551F9D
:10148000F2CF4695F1DF08C0161617061806991F09
:10149000F1CF86957105610508940895E894BB27FE
:1014A00066277727CB0197F908955058BB27AA27BD
:1014B0000ED0C1CFB2DF30F0B7DF20F031F49F3F64
:1014C00011F41EF4A7CF0EF4E095E7FB9DCFE92FB2
:1014D000C3DF80F3BA17620773078407950718F014
:1014E00071F49EF5DBCF0EF4E0950B2EBA2FA02DF4
:1014F0000B01B90190010C01CA01A0011124FF27C1
:10150000591B99F0593F50F4503E68F11A16F040BB
:10151000A22F232F342F4427585FF3CF46953795BA
:101520002795A795F0405395C9F77EF41F16BA0B7F
:10153000620B730B840BBAF09150A1F0FF0FBB1F2D
:10154000661F771F881FC2F70EC0BA0F621F731F76
:10155000841F48F4879577956795B795F7959E3FD3
:1015600008F0B3CF9395880F08F09927EE0F979561
:10157000879508950CD05FCF57DF40F04EDF30F0F5
:1015800021F45F3F19F040CF511189CF43CF64DF81
:1015900098F39923C9F35523B1F3951B550BBB273A
:1015A000AA2762177307840738F09F5F5F4F220FE7
:1015B000331F441FAA1FA9F333D00E2E3AF0E0E8E0
:1015C00030D091505040E695001CCAF729D0FE2F2C
:1015D00027D0660F771F881FBB1F261737074807BE
:1015E000AB07B0E809F0BB0B802DBF01FF27935874
:1015F0005F4F2AF09E3F510568F006CF50CF5F3F06
:10160000ECF3983EDCF3869577956795B795F7955B
:101610009F5FC9F7880F911D9695879597F9089553
:10162000E1E0660F771F881FBB1F621773078407EF
:10163000BA0720F0621B730B840BBA0BEE1F88F7FE
:10164000E0950895FA01EE0FFF1F30962105310550
:1016500099F16115710561F48038BFE39B0749F189
:1016600068949038810561F08038BFEF9B0741F0A6
:10167000992342F5FF3FE1053105210511F1E89479
:101680000894E795D901AA2329F4AB2FBE2FF85F60
:10169000D0F310C0FF5F70F4A695E0F7F73950F073
:1016A00019F0FF3A38F49F779F930CD00F9007FC06
:1016B000905808953EF0AECE60E070E080E89FE381
:1016C00008954FE79F775F934F933F932F939ED05B
:1016D0002F913F914F915F9134DE05C019F40EF0C8
:1016E00093CEDCCE97CEC0DEC8F39638C0F707F8AD
:1016F0000F92E8942BE33AEA48EB5FE730DE0F9273
:101700000F920F924DB75EB70F92C0D0E4EEF0E0AB
:1017100016D04F915F91EF91FF91E595EE1FFF1F5E
:1017200049F0FE57E0684427EE0F441FFA95E1F7B1
:101730004195550B32D00F9007FE26C00895DF93D8
:10174000CF931F930F93FF92EF92DF927B018C0157
:10175000689405C0DA2EEF0100DEFE01E894A59141
:101760002591359145915591AEF3EF01B0DEFE0123
:101770009701A801DA9479F7DF90EF90FF900F912D
:101780001F91CF91DF9108959B01AC0160E070E063
:1017900080E89FE3EFCE38CEACC066DEE8F3992355
:1017A000D9F3940F511DBBF39150504094F059F070
:1017B000882332F0660F771F881F91505040C1F781
:1017C0009E3F510544F7880F911D9695879597F98F
:1017D00008955F3FACF0983E9CF0BB2786957795C7
:1017E0006795B79508F4B1609395C1F7BB0F58F7AB
:1017F00011F460FFE8CF6F5F7F4F8F4F9F4FE3CFB4
:101800004ECE0EF076C006CE6894FECD2DDEC8F327
:101810009923D1F3C6F3DF93CF931F930F93FF92D6
:10182000C92FDD2788232AF02197660F771F881F8D
:10183000DAF720E030E040E85FEB9FE3883920F002
:10184000803E30F021968F7731DEECE0F1E003C08E
:101850002DDEE9E3F1E073DF8B01BE01EC01FB2E2D
:101860006F5771097595771F880B990B2FDD28E14C
:1018700032E741E35FE371DDAF2D9801AE01FF90E8
:101880000F911F91CF91DF9122DED5CDFA01DC01BE
:10189000AA0FBB1F9B01AC01BF5728F42227332797
:1018A000442750781FC0B75188F4AB2F00244695C9
:1018B00037952795011CA395D2F3002069F0220FDC
:1018C000331F441FB395DAF30DD0EFCD61307105AE
:1018D000A0E88A07B94630F49B01AC016627772758
:1018E00088279078309621F0208331834283538378
:1018F00008959F3F31F0915020F487957795679533
:10190000B795880F911D9695879597F90895EE0FD5
:10191000FF1F881F8BBF0790F691E02D1994CF937E
:10192000DF938230910510F482E090E0E09124048E
:10193000F091250420E030E0C0E0D0E0309711F1D4
:101940004081518148175907C0F04817590761F481
:1019500082819381209719F09B838A832BC0909377
:1019600025048093240426C02115310519F042175F
:10197000530718F49A01BE01DF01EF010280F381E1
:10198000E02DDCCF2115310509F1281B390B24305E
:10199000310590F412968D919C9113976115710504
:1019A00021F0FB019383828304C0909325048093EC
:1019B0002404FD01329644C0FD01E20FF31F819320
:1019C0009193225031092D933C933AC020912204E7
:1019D00030912304232B41F4209102023091030221
:1019E00030932304209322042091000230910102BD
:1019F0002115310541F42DB73EB7409104025091B5
:101A00000502241B350BE0912204F0912304E21718
:101A1000F307A0F42E1B3F0B2817390778F0AC0111
:101A20004E5F5F4F2417350748F04E0F5F1F5093EE
:101A30002304409322048193919302C0E0E0F0E0FC
:101A4000CF01DF91CF9108950F931F93CF93DF9331
:101A5000009709F48CC0FC01329713821282009126
:101A60002404109125040115110581F42081318190
:101A7000820F931F209122043091230428173907E5
:101A800079F5F0932304E093220471C0D80140E07B
:101A900050E0AE17BF0750F412962D913C9113976A
:101AA000AD012115310509F1D901F3CF9D01DA010D
:101AB0003383228360817181860F971F821793077A
:101AC00069F4EC0128813981260F371F2E5F3F4FC3
:101AD000318320838A819B8193838283452B29F4E0
:101AE000F0932504E093240442C01396FC93EE93F4
:101AF0001297ED01499159919E01240F351FE2176C
:101B0000F30771F480819181840F951F02961196DD
:101B10009C938E938281938113969C938E931297BC
:101B2000E0E0F0E0D80112968D919C911397009718
:101B300019F0F8018C01F6CF8D919C9198012E5FE0
:101B40003F4F820F931F20912204309123042817C6
:101B5000390769F4309729F410922504109224046F
:101B600002C0138212821093230400932204DF9197
:101B7000CF911F910F9108956F927F928F929F92B4
:101B8000AF92BF92CF92DF92EF92FF920F931F938B
:101B9000CF93DF93EC01009781F4CB01DF91CF91DC
:101BA0001F910F91FF90EF90DF90CF90BF90AF907B
:101BB0009F908F907F906F90B2CEFC01E60FF71F41
:101BC0009C0122503109E217F30708F4A8C0D9019B
:101BD0000D911C91119706171707A8F005301105F4
:101BE00008F49BC0C80104978617970708F495C0AE
:101BF00002501109061B170B019311936D937C93EF
:101C0000CF0122DF8AC05B01A01AB10A4C01800E0D
:101C1000911EA0912404B091250440E050E0E12CF5
:101C2000F12C109709F44AC0A815B905D1F56D90AB
:101C30007C901197630182E0C80ED11CCA14DB04AA
:101C400080F1A3014A195B096A0182E0C80ED11C28
:101C50001296BC9012971396AC91B5E0CB16D104B6
:101C600040F0B282A38351834083D9016D937C936A
:101C70000AC00E5F1F4FC301800F911FF9019183AE
:101C80008083EB2DFA2FE114F10431F0D701139684
:101C9000FC93EE93129741C0F0932504E093240443
:101CA0003CC08D919C9111974817590708F4AC01DD
:101CB0007D0112960D90BC91A02DB3CF809122048E
:101CC0009091230488159905E1F446175707C8F445
:101CD0008091000290910102009741F48DB79EB768
:101CE0004091040250910502841B950BE817F907F7
:101CF000B0F4F0932304E0932204F901718360832C
:101D00000CC0CB010CDE7C01009749F0A801BE019C
:101D10001BD0CE0199DEC70104C0CE0102C080E015
:101D200090E0DF91CF911F910F91FF90EF90DF90A6
:101D3000CF90BF90AF909F908F907F906F900895BD
:101D400081E090E0F894D9C2FB01DC0102C001906F
:101D50000D9241505040D8F70895FB01DC010190ED
:101D60000D920020E1F708950F931F93CF93DF9317
:101D7000CDB7DEB72E970FB6F894DEBF0FBECDBF3E
:101D80000E891F8986E08C831A8309838FEF9FE772
:101D90009E838D83AE01465E5F4F688D798DCE0147
:101DA000019611D02F813885F801E20FF31F1082C0
:101DB0002E960FB6F894DEBF0FBECDBFDF91CF9148
:101DC0001F910F9108952F923F924F925F926F92C1
:101DD0007F928F929F92AF92BF92CF92DF92EF92BB
:101DE000FF920F931F93CF93DF93CDB7DEB72C975E
:101DF0000FB6F894DEBF0FBECDBF7C016B018A0128
:101E0000FC0117821682838181FFB0C1CE01019649
:101E10004C01F7019381F60193FD859193FF819128
:101E20006F01882309F49EC1853239F493FD8591B1
:101E300093FF81916F01853221F4B70190E0C7D102
:101E4000E8CF512C312C20E02032A0F48B3269F005
:101E500030F4803259F0833269F420612CC08D3225
:101E600039F0803339F4216026C02260246023C019
:101E7000286021C027FD27C030ED380F3A3078F4B4
:101E800026FF06C0FAE05F9E300D1124532E13C0CA
:101E90008AE0389E300D1124332E20620CC08E3221
:101EA00021F426FD5FC1206406C08C3611F4206841
:101EB00002C0883641F4F60193FD859193FF81912C
:101EC0006F018111C1CF982F9F7D9554933028F4D5
:101ED0000C5F1F4FFFE3F9830DC0833631F083376A
:101EE00071F0833509F057C021C0F80180818983E2
:101EF0000E5F1F4F44244394512C540114C03801E9
:101F0000F2E06F0E711CF801A080B18026FF03C0C3
:101F1000652D70E002C06FEF7FEFC5012C874CD1BB
:101F20002C0183012C852F77222E16C03801F2E078
:101F30006F0E711CF801A080B18026FF03C0652DD3
:101F400070E002C06FEF7FEFC5012C872AD12C0112
:101F50002C852068222E830123FC19C0832D90E05C
:101F600048165906A0F4B70180E290E030D13A94C7
:101F7000F5CFF50127FC859127FE81915F01B7011F
:101F800090E025D131103A94F1E04F1A51084114F4
:101F9000510479F7DEC0843611F0893631F5F80145
:101FA00027FF07C060817181828193810C5F1F4F81
:101FB00008C060817181072E000C880B990B0E5FA1
:101FC0001F4F2F76722E97FF09C0909580957095C0
:101FD00061957F4F8F4F9F4F2068722E2AE030E02F
:101FE000A4012DD1A82EA81843C0853729F42F7E2F
:101FF000B22E2AE030E025C0F22FF97FBF2E8F36B7
:10200000C1F018F4883579F0ADC0803719F0883701
:1020100021F0A8C02F2F2061B22EB4FE0DC08B2D51
:102020008460B82E09C024FF0AC09F2F9660B92E85
:1020300006C028E030E005C020E130E002C020E129
:1020400032E0F801B7FE07C060817181828193811F
:102050000C5F1F4F06C06081718180E090E00E5FD1
:102060001F4FA401ECD0A82EA818FB2DFF777F2EC0
:1020700076FE0BC0372D3E7FA51450F474FE0AC0C7
:1020800072FC08C0372D3E7E05C0BA2C372D03C028
:10209000BA2C01C0B52C34FF0DC0FE01EA0DF11DB4
:1020A0008081803311F4397E09C032FF06C0B394B9
:1020B000B39404C0832F867809F0B39433FD12C023
:1020C00030FF06C05A2CB31418F4530C5B18B32C11
:1020D000B31460F4B70180E290E03C8778D0B39409
:1020E0003C85F6CFB31410F43B1801C0312C34FFFB
:1020F00011C0B70180E390E03C8769D03C8532FF96
:1021000016C031FD03C088E790E002C088E590E08A
:10211000B7010CC0832F867851F031FF02C08BE2EB
:1021200001C080E237FD8DE2B70190E050D0A514E8
:1021300030F4B70180E390E04AD05A94F8CFAA94E3
:10214000F401EA0DF11D8081B70190E040D0A110AB
:10215000F6CF332009F45DCEB70180E290E037D0AE
:102160003A94F7CFF7018681978102C08FEF9FEFF6
:102170002C960FB6F894DEBF0FBECDBFDF91CF9186
:102180001F910F91FF90EF90DF90CF90BF90AF9095
:102190009F908F907F906F905F904F903F902F9087
:1021A0000895FC010590615070400110D8F78095AA
:1021B00090958E0F9F1F0895FC0161507040019013
:1021C0000110D8F7809590958E0F9F1F08950F935B
:1021D0001F93CF93DF93FB01238121FD03C08FEF7A
:1021E0009FEF28C022FF16C0468157812481358188
:1021F0004217530744F4A081B1819D012F5F3F4FE7
:10220000318320838C93268137812F5F3F4F378323
:10221000268310C0EB01092F182F0084F185E02DD3
:102220001995892BE1F68E819F8101969F838E837C
:10223000812F902FDF91CF911F910F910895FA0177
:10224000AA27283051F1203181F1E8946F936E7FF5
:102250006E5F7F4F8F4F9F4FAF4FB1E03ED0B4E0E6
:102260003CD0670F781F891F9A1FA11D680F791F27
:102270008A1F911DA11D6A0F711D811D911DA11D38
:1022800020D009F468943F912AE0269F1124301948
:10229000305D3193DEF6CF010895462F4770405DE3
:1022A0004193B3E00FD0C9F7F6CF462F4F70405D92
:1022B0004A3318F0495D31FD4052419302D0A9F7ED
:1022C000EACFB4E0A6959795879577956795BA95E7
:1022D000C9F700976105710508959B01AC010A2EAD
:1022E00006945795479537952795BA95C9F7620F84
:1022F000731F841F951FA01D089511E0CEE9D1E042
:1023000000E005C0802FFE0102DB2196011DCF39C0
:0C231000D10780E00807B1F7F894FFCF78
:10231C00000026048000000000005302D0011D02C2
:10232C00FB010F029902244243445553542C256956
:10233C002C25732C302E303163662A002558000D65
:02234C000A0085
:00000001FF
