:020000040000FA
:100000000C9498000C94C0000C94C0000C94C00098
:100010000C94C0000C94C0000C94C0000C94C00060
:100020000C94C0000C94C0000C94C0000C94C00050
:100030000C94C0000C94C0000C94C0000C94C00040
:100040000C9435090C94C0000C9403090C94DD0841
:100050000C94C0000C94C0000C94C0000C94C00020
:100060000C947F090C94C000084AD73B3BCE016E2C
:1000700084BCBFFDC12F3D6C74319ABD56833DDAFF
:100080003D00C77F11BED9E4BB4C3E916BAAAABE0E
:10009000000000803F006932635772697465206612
:1000A00061696C65643A20000000000800020100EC
:1000B0000003040700000000000000004572726F9A
:1000C000722072656164696E672073656E736F720A
:1000D00000693263526561642074696D656F75747F
:1000E0000069326352656164206661696C65643AD7
:1000F000200000000000250028002B000000000068
:10010000240027002A000404040404040404020256
:100110000202020203030303030301020408102086
:1001200040800102040810200102040810209E0AE9
:1001300011241FBECFEFD8E0DEBFCDBF11E0A0E09D
:10014000B1E0E8E3F5E202C005900D92AA3BB107E9
:10015000D9F723E0AAEBB1E001C01D92A03DB207A0
:10016000E1F710E0C8E9D0E004C02197FE010E9449
:100170009412C739D107C9F70E94E10B0C949A1267
:100180000C940000982F2091AA0281E0213208F0FF
:1001900043C0809186028111FCCF8091A90232E098
:1001A00030938602909385029FEF90938402109281
:1001B000830220938202A9E8B2E0E2E6F2E090E056
:1001C000291331C01092610290916102880F892B2E
:1001D0008093610280916002813049F51092600243
:1001E000809161028093BB008091BC0083FDF8CFB9
:1001F00085EC8093BC00809186028230E1F380918F
:1002000084028F3FB1F0809184028032A1F080910E
:100210008402803391F084E0109288021092AA0246
:100220001092870208953D9131939F5FC9CF85EE6B
:10023000E0CF80E0F1CF82E0EFCF83E0EDCF90918F
:1002400086029111FCCF91E09093860290938502F3
:100250002FEF2093840210928302260F20938202B4
:100260009093610290916102880F892B80936102C3
:10027000809160028130F9F41092600280916102F5
:100280008093BB008091BC0083FDF8CF85EC809308
:10029000BC00809186028130E1F380918302861751
:1002A00010F460918302A2E6B2E0E0E4F2E080E0C4
:1002B000861303C0089585EEEACF9D9191938F5FD9
:1002C000F7CF8091310290913002891B990B0895EC
:1002D00008950895AF92BF92CF92DF92EF92FF926E
:1002E0000F931F93CF93DF936C017B018B01040F5E
:1002F000151FEB015E01AE18BF08C017D10759F0FA
:100300006991D601ED91FC910190F081E02DC6013B
:100310000995892B79F7C501DF91CF911F910F9135
:10032000FF90EF90DF90CF90BF90AF900895FC01C9
:10033000538D448D252F30E0842F90E0821B930B4A
:10034000541710F0CF96089501970895FC01918DF0
:10035000828D981761F0A28DAE0FBF2FB11D5D96F3
:100360008C91928D9F5F9F73928F90E008958FEF95
:100370009FEF0895FC01918D828D981731F0828D49
:10038000E80FF11D858D90E008958FEF9FEF0895A0
:10039000FC01918D228D892F90E0805C9F4F821B04
:1003A00091098F73992708958BEA92E00E94C80102
:1003B00021E0892B09F420E0822F089580E090E06D
:1003C000892B29F00E94D40181110C94000008951A
:1003D000FC01A48DA80FB92FB11DA35ABF4F2C91BA
:1003E000848D90E001968F739927848FA689B789B1
:1003F0002C93A089B1898C91837080648C93938DA8
:10040000848D981306C00288F389E02D80818F7D4A
:1004100080830895EF92FF920F931F93CF93DF9302
:10042000EC0181E0888F9B8D8C8D98131AC0E88930
:10043000F989808185FF15C09FB7F894EE89FF89FF
:100440006083E889F98980818370806480839FBF9D
:1004500081E090E0DF91CF911F910F91FF90EF909D
:100460000895F62E0B8D10E00F5F1F4F0F731127AD
:10047000E02E8C8D8E110CC00FB607FCFACFE889E8
:10048000F989808185FFF5CFCE010E94E801F1CF87
:10049000EB8DEC0FFD2FF11DE35AFF4FF0829FB75C
:1004A000F8940B8FEA89FB8980818062CFCF0F930C
:1004B0001F93CF93DF938C01D0E0C0E0F801EC0FE5
:1004C000FD1F6491662341F08BEA92E00E940A02CC
:1004D000892B11F02196F2CFCE01DF91CF911F91A0
:1004E0000F910895CF93DF93EC01888D8823B9F0A5
:1004F000AA89BB89E889F9898C9185FD03C080812F
:1005000086FD0DC00FB607FCF7CF8C9185FFF2CFAB
:10051000808185FFEDCFCE010E94E801E9CFDF9118
:10052000CF91089590E0FC01E855FF4F2491FC0124
:10053000E65EFE4F3491FC01EA5FFE4FE491EE234C
:10054000C9F0222339F0233001F1A8F4213019F148
:10055000223029F1F0E0EE0FFF1FEE50FF4FA59182
:10056000B4918FB7F894EC91611126C030953E2379
:100570003C938FBF08952730A9F02830C9F024306C
:1005800049F7809180008F7D03C0809180008F7734
:1005900080938000DFCF84B58F7784BDDBCF84B5B7
:1005A0008F7DFBCF8091B0008F778093B000D2CF4A
:1005B0008091B0008F7DF9CF3E2BDACF10923002C0
:1005C00010923102109288021092AA0210928602B2
:1005D00081E0809385021092600261E082E10E94D6
:1005E000920261E083E10E949202E9EBF0E08081F7
:1005F0008E7F808380818D7F808388E48093B800A4
:1006000085E48093BC0088E691E090932F0280936C
:100610002E0289E691E090932D0280932C0208959A
:100620003FB7F8948091020290910302A0910402D6
:10063000B091050226B5A89B05C02F3F19F0019681
:10064000A11DB11D3FBFBA2FA92F982F8827BC012C
:10065000CD01620F711D811D911D42E0660F771F54
:10066000881F991F4A95D1F708958F929F92AF9254
:10067000BF92CF92DF92EF92FF926B017C010E94BA
:1006800010034B015C01C114D104E104F104B9F081
:100690000E941003681979098A099B09683E734012
:1006A0008105910580F321E0C21AD108E108F10823
:1006B00088EE880E83E0981EA11CB11CE4CFFF9049
:1006C000EF90DF90CF90BF90AF909F908F90089564
:1006D0002F923F924F925F926F927F928F929F9252
:1006E000AF92BF92CF92DF92EF92FF920F931F9340
:1006F000CF93DF93CDB7DEB7A4970FB6F894DEBFE4
:100700000FBECDBF20E2E0E0F1E0DE0111960190E6
:100710000D922A95E1F797FD9DC021E030E03AA3C4
:1007200029A31C0197FF03C0319421943108910142
:1007300043E0359527954A95E1F73CA32BA310E0BC
:1007400000E089A19AA12C01990F66087708912CE5
:10075000812CF12CE12CE214F3040CF057C06091D1
:10076000560370915703072E000C880B990B0E94BB
:100770003503C301B2010E94181120E030E040E6C9
:1007800050E40E94FC119B01AC0160E070E080E647
:1007900090E40E948A0F5B016C01B401092C000CEB
:1007A000880B990B0E9418119B01AC01C601B50181
:1007B0000E948B0F0E94E010660F771F660F771F55
:1007C000AA24A394B12CAC0EBD1EA60EB71E28E51C
:1007D000C22E23E0D22EF50161915F01F6018081E6
:1007E000F2E0CF0ED11C0E94920220E6C21623E056
:1007F000D20689F73FEFE31AF30A89A19AA1880E7E
:10080000991E98E0E916F10409F0A5CF0F5F1F4F7C
:10081000E8E02E1A31082BA13CA1201731070CF07B
:1008200096CFA4960FB6F894DEBF0FBECDBFDF9172
:10083000CF911F910F91FF90EF90DF90CF90BF90DD
:10084000AF909F908F907F906F905F904F903F9070
:100850002F900895EFEFFFEFFAA3E9A362CF85EDA4
:100860008093BC008091BC0084FDFCCF1092860276
:1008700008952091DA01260F3327331F21323105E5
:10088000ECF420918602FC0190E080E0243069F0D5
:1008900082E00895A091DA012191AC0146545E4FA7
:1008A000A40FB52FB11D2C930196861798F3809154
:1008B000DA01680F6093DA0180E0089581E008951D
:1008C0000895E091300280913102E81730F4F0E0B1
:1008D000E05CFD4F808190E008958FEF9FEF0895D9
:1008E00090913002809131022FEF3FEF981748F43A
:1008F000E92FF0E0E05CFD4F208130E09F5F9093B6
:100900003002C9010895CF92DF92EF92FF920F93C8
:100910001F93CF93DF937C01CB018A012091870243
:10092000222389F0EB016B01C40ED51ECC15DD0529
:1009300069F06991D701ED91FC910190F081E02D72
:10094000C7010995F3CF642F0E943904C801DF91D4
:10095000CF911F910F91FF90EF90DF90CF9008956E
:10096000CF93DF931F92CDB7DEB7698320918702C3
:100970002223F9F02091AA02203258F021E030E041
:10098000FC013383228390E080E00F90DF91CF91D0
:10099000089580918802E82FF0E0E757FD4F998194
:1009A00090838F5F809388028093AA0281E090E019
:1009B000ECCF61E0CE0101960E943904F7CF682F99
:1009C00088E493E00C94B00490E080E008954F92A6
:1009D0005F926F927F928F929F92AF92BF92CF92CF
:1009E000DF92EF92FF920F931F93CF93DF93CDB7D8
:1009F000DEB76E970FB6F894DEBF0FBECDBF9E8FE9
:100A00008D8F4D8B5E8B6F8B788FC901B801AD8D4B
:100A1000BE8D50962D913D914D915C915397298BB0
:100A20003A8B4B8B5C8B0E948A0FED8DFE8D648B15
:100A3000758B868B978BA70196010E94FC11AD8D5B
:100A4000BE8D1C962D913D914D915C911F970E94FA
:100A50008B0F6D877E878F87988BAD8DBE8D94961B
:100A60002D913D914D915C91979729833A834B83CA
:100A70005C83A701960169817A818B819C810E94A8
:100A8000FC114B015C01AD8DBE8D5C962D913D91AD
:100A90004D915C915F972D833E834F83588790964D
:100AA0002D913D914D915C91939729873A874B8782
:100AB0005C872D813E814F8158850E948A0F298550
:100AC0003A854B855C850E948A0FED8DFE8D2081D5
:100AD0003181428153810E948B0FA70196010E94B0
:100AE000FC11AD8DBE8D58962D913D914D915C912F
:100AF0005B970E948B0F2B013C01A50194016D8136
:100B00007E818F8198850E948A0F6D837E838F837B
:100B10009887A501940169857A858B859C850E94BB
:100B20008A0F69877A878B879C87ED8DFE8D24815C
:100B3000358146815781C701B6010E94FC11298188
:100B40003A814B815C810E948B0F698F7A8F8B8FEA
:100B50009C8FAD8DBE8D18962D913D914D915C91E0
:100B60001B97C301B2010E948B0F6B017C01ED8DBD
:100B7000FE8DC4AAD5AAE6AAF7AAAC019B01C301BF
:100B8000B2010E946E104B015C01AD8DBE8D989636
:100B90008D929D92AD92BC929B97A701960169851B
:100BA0007A858B859C850E946E106B017C01ED8D92
:100BB000FE8DC4A6D5A6E6A6F7A62D853E854F8553
:100BC00058896D897E898F89988D0E948A0F6983E3
:100BD0007A838B839C83AD8DBE8DD0966D937D93F0
:100BE0008D939C93D3979B01AC01C501B4010E94E6
:100BF000FC112D853E854F8558890E948B0F6D878E
:100C00007E878F87988BED8DFE8D648775878687AD
:100C1000978729813A814B815C81C701B6010E9487
:100C2000FC1129893A894B895C890E948B0FAD8D13
:100C3000BE8D50966D937D938D939C935397A50194
:100C40009401C301B2010E94FC119B01AC01C301DC
:100C5000B2010E948A0F2B013C01ED8DFE8D408E6A
:100C6000518E628E738EA50194016D817E818F817C
:100C700098850E94FC119B01AC016D817E818F8162
:100C800098850E948A0F4B015C01AD8DBE8D5C96EC
:100C90008D929D92AD92BC925F97A3019201C70184
:100CA000B6010E94FC119B01AC0169857A858B8598
:100CB0009C850E948A0FED8DFE8D60A371A382A397
:100CC00093A3A5019401C701B6010E94FC119B01E9
:100CD000AC01698D7A8D8B8D9C8D0E948A0FAD8DB4
:100CE000BE8D94966D937D938D939C9397976D8510
:100CF0007E858F8598896E960FB6F894DEBF0FBEFD
:100D0000CDBFDF91CF911F910F91FF90EF90DF90BA
:100D1000CF90BF90AF909F908F907F906F905F909B
:100D20004F900895FC0101900020E9F73197AF0141
:100D3000481B590BBC018BEA92E00C946A018F921C
:100D40009F92AF92BF920F931F93CF93DF93CDB734
:100D5000DEB7A1970FB6F894DEBF0FBECDBF19A2C4
:100D6000423008F44AE08E010F5D1F4F842E912C13
:100D7000B12CA12CA50194010E947212E62FB90199
:100D8000CA01EA30F4F4E05DD801EE938D01232B23
:100D9000242B252B79F790E080E0109719F0CD01F6
:100DA0000E949206A1960FB6F894DEBF0FBECDBF8B
:100DB000DF91CF911F910F91BF90AF909F908F9037
:100DC0000895E95CE1CFCF92DF92EF92FF92CF934B
:100DD000DF936B017C016DE28BEA92E00E940A02D4
:100DE000EC0166277727CB016C197D098E099F09D5
:100DF0004AE00E949F068C0F9D1FDF91CF91FF90CC
:100E0000EF90DF90CF900895CF93DF930E949206EA
:100E1000EC0184E491E00E9492068C0F9D1FDF910B
:100E2000CF910895CF93C62F91E09093870292E6D9
:100E30009093A902109288021092AA02082E000C28
:100E4000990B0E94DF048C2FCC0F990B0E94DF04BA
:100E500081E00E94C200882321F087E491E00E9493
:100E6000040761E070E080E090E0CF910C943503DE
:100E70004F925F926F927F928F929F92AF92BF92AA
:100E8000CF92DF92EF92FF920F931F93CF936B015C
:100E90007C01742EAC019B010E946D12882399F095
:100EA0008EE491E0CF911F910F91FF90EF90DF9032
:100EB000CF90BF90AF909F908F907F906F905F90FA
:100EC0004F900C94920646015701E894B7F82FEF23
:100ED0003FEF4FE75FE7C501B4010E946D1281113A
:100EE0000DC02FEF3FEF4FE75FE7C501B4010E9450
:100EF000691018161CF482E591E0D4CF2FEF3FEF74
:100F00004FE75FE4C701B6010E94EF1118161CF409
:100F100086E591E0C7CF2FEF3FEF4FE75FECC701CA
:100F2000B6010E94691087FDF3CF20E030E0A901EF
:100F3000C701B6010E94691010E000E087FF0AC0F7
:100F40006DE28BEA92E00E940A028C01F7FAF094BB
:100F5000F7F8F094C0E060E070E080E09FE37C167A
:100F600041F020E030E040E251E40E946E10CF5F9B
:100F7000F6CFA70196010E948B0F2B013C010E9426
:100F8000E7104B015C014AE00E949F067C01E00EE5
:100F9000F11ECC23C1F1C501B4010E9416119B01C1
:100FA000AC01C301B2010E948A0F4B015C016EE2E9
:100FB0008BEA92E00E940A02E80EF91EC15018F175
:100FC00020E030E040E251E4C501B4010E94FC1190
:100FD0002B013C010E94E7104B01B12CA12C4AE0EF
:100FE000C501B4010E949F06E80EF91EC501B401B7
:100FF0000E9416119B01AC01C301B2010E948A0F2D
:101000004B015C01DBCFC701CF911F910F91FF9086
:10101000EF90DF90CF90BF90AF909F908F907F9098
:101020006F905F904F9008950F931F93CF93DF932E
:101030008B01C42FD22F91E09093870298E6909372
:10104000A902109288021092AA02682F88E493E005
:101050000E94B0044C2F50E0B80188E493E00E9455
:1010600083048D2F0E94C200C82F882379F086E95F
:1010700090E00E9457026C2F70E090E080E04AE020
:101080000E949F0684E491E00E9492068C2FDF91DB
:10109000CF911F910F910895CF92DF92EF92FF921F
:1010A0000F931F93CF93DF93162F91E090938702B6
:1010B00098E69093A902109288021092AA02682FD3
:1010C00088E493E00E94B00480E00E94C200C82F30
:1010D0008823C9F081EE90E00E9457026C2F70E0E7
:1010E00090E080E04AE00E949F0684E491E00E9444
:1010F00092068C2FDF91CF911F910F91FF90EF906F
:10110000DF90CF900895612F88E60E941F01082F7D
:10111000109230028093310282E3E82E82E0F82EB2
:10112000D0E080913002081759F088E493E00E94E3
:101130007004F70181937F01DF5F1D13F2CFD9CFD8
:101140000E9410036B017C010E9410036C197D0941
:101150008E099F09683E734081059105A8F381EDD2
:1011600090E00E94570284E491E00E949206C5E05C
:10117000C0CFCF93DF93BC01990F880B990B97FFDA
:101180000CC00E94E306EC0184E491E00E94920608
:101190008C0F9D1FDF91CF9108954AE00E949F061A
:1011A000F2CF60E882E00E94120768E084E00E94CB
:1011B000120760E08CE10C9412071F920F920FB699
:1011C0000F9211242F933F934F935F936F937F93CD
:1011D0008F939F93AF93BF93EF93FF938BEA92E02C
:1011E0000E94E801FF91EF91BF91AF919F918F9184
:1011F0007F916F915F914F913F912F910F900FBE13
:101200000F901F9018951F920F920FB60F921124F6
:101210002F938F939F93EF93FF93E091BB02F091F5
:10122000BC028081E091C102F091C20282FD1BC02C
:1012300090818091C4028F5F8F732091C5028217C5
:1012400041F0E091C402F0E0E555FD4F958F8093A9
:10125000C402FF91EF919F918F912F910F900FBE3C
:101260000F901F9018958081F4CF1F920F920FB6A8
:101270000F9211242F933F938F939F93AF93BF931C
:101280008091FE019091FF01A0910002B0910102B6
:101290003091FD0123E0230F2D3758F50196A11D54
:1012A000B11D2093FD018093FE019093FF01A09357
:1012B0000002B09301028091020290910302A0917A
:1012C0000402B09105020196A11DB11D8093020296
:1012D00090930302A0930402B0930502BF91AF91D3
:1012E0009F918F913F912F910F900FBE0F901F9064
:1012F000189526E8230F0296A11DB11DD2CF1F928B
:101300000F920FB60F9211242F933F934F935F9339
:101310006F937F938F939F93AF93BF93EF93FF93BD
:101320008091B900887F803609F44AC0F0F5883290
:1013300009F4A7C018F5803109F49BC0B8F48823DC
:1013400009F4F9C0883009F494C0FF91EF91BF917E
:10135000AF919F918F917F916F915F914F913F914D
:101360002F910F900FBE0F901F901895883109F4A0
:1013700088C0803251F78093840214C0803409F40D
:101380009DC040F48033B9F38833F9F6809384022A
:1013900085ECB0C0803509F485C0883509F496C065
:1013A000883499F60E942F04D0CF883909F48CC074
:1013B00038F5883729F050F4883611F0803729F64F
:1013C00083E0809386021092FC0157C0883809F4AC
:1013D0007BC0803919F0803809F0B7CF8091FC01CB
:1013E000803208F071C0E091FC0181E08E0F8093A3
:1013F000FC018091BB00F0E0E452FE4F80833DC0D1
:10140000803B39F0E0F4803A09F479C0883A09F079
:101410009CCF84E0809386021092DB011092DA0167
:10142000E0912E02F0912F0209958091DA0181114D
:101430000FC081E08093DA011092BA0109C0803CAC
:1014400009F4A6CF883C09F4A3CF883B09F07DCFEF
:10145000E091DB0181E08E0F8093DB01F0E0E65448
:10146000FE4F80818093BB009091DB018091DA0177
:1014700029C0809161028093BB0085EC8093BC0001
:1014800064CF9091830280918202981758F5E09181
:10149000830281E08E0F80938302F0E0EE59FD4FCE
:1014A0008081E9CFE091830281E08E0F80938302F7
:1014B0008091BB00F0E0EE59FD4F80839091830254
:1014C000809182029817C8F285E8D8CFE091830214
:1014D00081E08E0F809383028091BB00F0E0EE5993
:1014E000FD4F80838091850281115CCF81E08093E4
:1014F000600284EA8093BC001092860226CF85ECBD
:101500008093BC00109286028091FC01803230F4FE
:10151000E091FC01F0E0E452FE4F10826091FC018A
:1015200070E0E0912C02F0912D028CED91E0099594
:101530001092FC010ACF1092840234CF0F931F93B4
:10154000CF93DF931092AE021092AD0288EE93E03B
:10155000A0E0B0E08093AF029093B002A093B102FC
:10156000B093B20224E231E03093AC022093AB029C
:1015700025EC30E03093B8022093B70224EC30E041
:101580003093BA022093B90220EC30E03093BC02D1
:101590002093BB0221EC30E03093BE022093BD02C9
:1015A00022EC30E03093C0022093BF0226EC30E002
:1015B0003093C2022093C1021092C4021092C5025D
:1015C0001092C6021092C70210924B0310924A0367
:1015D00080934C0390934D03A0934E03B0934F031D
:1015E00086E391E090934903809348030FE612E16C
:1015F00023E83AE3009398031093990320939A0306
:1016000030939B0346EA5BE964E47BE340939C03ED
:1016100050939D0360939E0370939F038FE892EC19
:10162000A5EFBCE38093A0039093A103A093A20332
:10163000B093A3031092A4031092A5031092A603E3
:101640001092A7031092A8031092A9031092AA0364
:101650001092AB031092B0031092B1031092B20338
:101660001092B3031092B4031092B5031092B60314
:101670001092B7031092B8031092B9031092BA03F4
:101680001092BB031092BC031092BD031092BE03D4
:101690001092BF03009360031093610320936203D1
:1016A0003093630340936403509365036093660330
:1016B000709367038093680390936903A0936A0310
:1016C000B0936B0310926C0310926D0310926E0333
:1016D00010926F03109270031092710310927203B4
:1016E00010927303109278031092790310927A0388
:1016F00010927B0310927C0310927D0310927E0364
:1017000010927F0310928003109281031092820343
:101710001092830310928403109285031092860323
:101720001092870382E090E09093590380935803CE
:1017300083E090E090935B0380935A0384E090E011
:1017400090935D0380935C0385E090E090935F034A
:1017500080935E03A8E5B3E08D919D919927FC01EC
:10176000E65EFE4F24918A5F9E4FFC0184918823A0
:1017700099F090E0880F991FFC01E450FF4FC5914C
:10178000D491FC01EE50FF4F859194918FB7F8945E
:10179000E881E22BE8838FBFF3E0A036BF07E1F6D4
:1017A00082E390E0909357038093560388E394E09C
:1017B0009093550380935403DF91CF911F910F9124
:1017C0000895CF93DF93CDB7DEB72D970FB6F8947A
:1017D000DEBF0FBECDBF789484B5826084BD84B572
:1017E000816084BD85B5826085BD85B5816085BD1C
:1017F00080916E00816080936E00109281008091D4
:10180000810082608093810080918100816080935B
:101810008100809180008160809380008091B10080
:1018200084608093B1008091B00081608093B000AB
:1018300080917A00846080937A0080917A0082603F
:1018400080937A0080917A00816080937A00809101
:101850007A00806880937A001092C100E091BB0208
:10186000F091BC0282E08083E091B702F091B8026F
:101870001082E091B902F091BA0280E18083109267
:10188000C302E091BF02F091C00286E08083E09144
:10189000BD02F091BE02808180618083E091BD0233
:1018A000F091BE02808188608083E091BD02F0915A
:1018B000BE02808180688083E091BD02F091BE020B
:1018C00080818F7D808388E090E0909357038093A0
:1018D00056030E94DE028CE08093B80087E080937C
:1018E000320210923302109234021092350220E03C
:1018F00044E062E372E089E10E9414088111F7CFAD
:1019000011E0198321E041E0BE016F5F7F4F8BE65C
:101910000E9414088111F5CF61E085E70E944C0810
:101920008111FACF80913202883629F08CEB90E059
:101930000E945702FFCF64E670E080E090E00E94D2
:10194000350366E08BE30E944C088111FACFE090EA
:101950003202F0903302FE24EF24FE24F0922B0298
:10196000E0922A02009134021091350210270127DB
:10197000102710932902009328026091360270917B
:101980003702762767277627709323026093220217
:10199000072E000C880B990B0E9418114B015C015B
:1019A000B701FF0C880B990B0E941811A501940137
:1019B0000E940A102BED3FE049E450E40E948B0F97
:1019C00021EE3EE245E652E40E94FC116B017C01EF
:1019D000C0921A02D0921B02E0921C02F0921D02E9
:1019E000B801110F880B990B0E941811A5019401E1
:1019F0000E940A102BED3FE049E450E40E948B0F57
:101A000021EE3EE245E652E40E94FC1160931E0284
:101A100070931F0280932002909321026093A4038D
:101A20007093A5038093A6039093A703C0926C03C1
:101A3000D0926D03E0926E03F0926F0360931202F6
:101A4000709313028093140290931502C0920E02B9
:101A5000D0920F02E0921002F09211020E94100345
:101A600060931602709317028093180290931902E4
:101A70008AE591E00E9404070E94DE028CE08093D8
:101A8000B8000E94D1080E94D1086EE08BE30E944A
:101A90004C088111FACFC0903202D0903302DC247E
:101AA000CD24DC24D0922B02C0922A02A0903402D2
:101AB000B0903502BA24AB24BA24B0922902A09285
:101AC0002802E0903A02F0903B02FE24EF24FE242C
:101AD000F0922702E092260200913C0210913D0212
:101AE00010270127102710932502009324026091EC
:101AF000220270912302072E000C880B990B0E9482
:101B000018112B013C01B501BB0C880B990B0E94ED
:101B10001811A30192010E940A102BED3FE049E445
:101B200050E40E948B0F21EE3EE245E652E40E9413
:101B3000FC116E837F838887998760931E02709360
:101B40001F028093200290932102B601DD0C880BC6
:101B5000990B0E941811A30192010E940A102BED0B
:101B60003FE049E450E40E948B0F21EE3EE245E65F
:101B700052E40E94FC116A877B878C879D87609363
:101B80001A0270931B0280931C0290931D02B701EE
:101B9000FF0C880B990B0E94181120E030E043E005
:101BA00053E40E946E102B013C01B801110F880B09
:101BB000990B0E94181120E030E043E053E40E94AA
:101BC0006E109B01AC0150582A833B834C835D838C
:101BD0000E9410038090160290901702A0901802A5
:101BE000B0901902681979098A099B090E94161197
:101BF00020E034E244E759E40E946E10A301920110
:101C00000E94FC119B01AC016091120270911302C1
:101C100080911402909115020E948B0F6093120222
:101C20007093130280931402909315020E94100384
:101C3000681979098A099B090E94161120E034E28B
:101C400044E759E40E946E102A813B814C815D81FA
:101C50000E94FC119B01AC0160910E0270910F0279
:101C600080911002909111020E948B0F60930E02DE
:101C700070930F0280931002909311020E94100340
:101C8000681979098A099B090E94161120E034E23B
:101C900044E759E40E946E106B017C0193018201BC
:101CA0004E815F816885798588E993E00E94E70429
:101CB00060930A0270930B0280930C0290930D02C2
:101CC0000E941003681979098A099B090E9416115C
:101CD00020E034E244E759E40E946E106B017C017D
:101CE0000A811B812C813D814A855B856C857D85C0
:101CF00080E693E00E94E704609306027093070277
:101D000080930802909309020E94100360931602C8
:101D100070931702809318029093190289E691E05C
:101D20000E94920680912602909127020E94B90893
:101D30008FE691E00E949206809124029091250204
:101D40000E94B90884E791E00E94920680912A02DD
:101D500090912B020E94B90889E791E00E949206B7
:101D600080912802909129020E94B9088EE791E0A3
:101D70000E94920660910A0270910B0280910C02FF
:101D800090910D0242E00E94380784E491E00E94A5
:101D9000920684E891E00E9492066091060270919A
:101DA0000702809108029091090242E00E943807E0
:101DB00084E491E00E9492066AE070E080E090E0A6
:101DC0000E9435038AE891E00E94920664E080E078
:101DD0000E94120700E117E231E03093870242E6E9
:101DE0004093A902109288021092AA0281E090E02A
:101DF0000E94DF0481E00E94C200882321F087E472
:101E000091E00E94040761E082E60E941F011092A7
:101E100030028093310288E493E00E947004817064
:101E200099270150110929F486E991E00E940407DD
:101E30002DC0892B89F651E05093870282E680936A
:101E4000A902109288021092AA028FE89FEF0E94C6
:101E5000DF0481E00E94C200882321F087E491E042
:101E60000E94040762E082E60E941F011092300285
:101E700080933102823050F088E493E00E94700435
:101E8000282E88E493E00E947004382E822D90E082
:101E9000982F88279C01230D311DB901032E000CBA
:101EA000880B990B37FF32C00E94E30684EA91E069
:101EB0000E94040787EA91E00E94920680915403F1
:101EC000909155030E94B90880EB91E00E94920620
:101ED0008AE590E00E94B9080091540310915503DF
:101EE00088279927801B910B0E946803C8010E94D4
:101EF0006803A0E0B0E0AB2B09F4C7CD0E94D40189
:101F0000882309F4C2CD0E940000BFCD4AE00E94A0
:101F10009F06CCCF5058BB27AA270E94A20F0C9433
:101F2000B5110E94A71138F00E94AE1120F039F4CB
:101F30009F3F19F426F40C947D110EF4E095E7FB15
:101F40000C947711E92F0E94C61158F3BA17620753
:101F500073078407950720F079F4A6F50C94E8112F
:101F60000EF4E0950B2EBA2FA02D0B01B9019001B4
:101F70000C01CA01A0011124FF27591B99F0593FF8
:101F800050F4503E68F11A16F040A22F232F342F40
:101F90004427585FF3CF469537952795A795F0408E
:101FA0005395C9F77EF41F16BA0B620B730B840BA3
:101FB000BAF09150A1F0FF0FBB1F661F771F881F5B
:101FC000C2F70EC0BA0F621F731F841F48F48795B3
:101FD00077956795B795F7959E3F08F0B0CF9395A5
:101FE000880F08F09927EE0F9795879508950E941E
:101FF000A71160F080E891E009F49EEF0E94AE1115
:1020000028F040E851E071F45EEF0CC00C947D11B3
:102010000C94E811E92FE0780E94C61140F3092ED4
:10202000052AB1F3261737074807590738F00E2E4F
:1020300007F8E02569F0E025E0640AC0EF6307F8DF
:10204000009407FADB01B9019D01DC01CA01AD0171
:10205000EF930E9485100E94B5110E943A105F9183
:10206000552339F02BED3FE049E450FD49EC0C9449
:102070008B0F0895DF93DD27B92FBF7740E85FE32B
:102080001616170648075B0718F4D92F0E94F4119B
:102090009F938F937F936F930E946912E8E6F0E01D
:1020A0000E9480110E94B5112F913F914F915F9135
:1020B0000E940F12DD2351F09058A2EA2AED3FE072
:1020C00049EC5FE3D0785D270E94A20FDF910C946A
:1020D000B5110E94531108F481E008950E94821006
:1020E0000C94B5110E94AE1158F00E94A71140F057
:1020F00029F45F3F29F00C94771151110C94E911E8
:102100000C947D110E94C61168F39923B1F35523F5
:1021100091F3951B550BBB27AA27621773078407FA
:1021200038F09F5F5F4F220F331F441FAA1FA9F390
:1021300035D00E2E3AF0E0E832D091505040E6957E
:10214000001CCAF72BD0FE2F29D0660F771F881FDF
:10215000BB1F261737074807AB07B0E809F0BB0BD2
:10216000802DBF01FF2793585F4F3AF09E3F5105E6
:1021700078F00C9477110C94E9115F3FE4F3983EEA
:10218000D4F3869577956795B795F7959F5FC9F7CF
:10219000880F911D9695879597F90895E1E0660F50
:1021A000771F881FBB1F621773078407BA0720F0C9
:1021B000621B730B840BBA0BEE1F88F7E095089532
:1021C0000E94E7106894B1110C94E91108950E94DF
:1021D000CE1188F09F5798F0B92F9927B751B0F0DA
:1021E000E1F0660F771F881F991F1AF0BA95C9F79B
:1021F00014C0B13091F00E94E811B1E008950C9440
:10220000E811672F782F8827B85F39F0B93FCCF3F2
:10221000869577956795B395D9F73EF49095809517
:10222000709561957F4F8F4F9F4F0895E89409C037
:1022300097FB3EF490958095709561957F4F8F4FF9
:102240009F4F9923A9F0F92F96E9BB279395F6950F
:10225000879577956795B795F111F8CFFAF4BB0F8D
:1022600011F460FF1BC06F5F7F4F8F4F9F4F16C0F1
:10227000882311F096E911C0772321F09EE8872F7B
:10228000762F05C0662371F096E8862F70E060E037
:102290002AF09A95660F771F881FDAF7880F9695B0
:1022A000879597F90895990F0008550FAA0BE0E854
:1022B000FEEF16161706E807F907C0F01216130608
:1022C000E407F50798F0621B730B840B950B39F448
:1022D0000A2661F0232B242B252B21F408950A26AE
:1022E00009F4A140A6958FEF811D811D089597F9EE
:1022F0009F6780E870E060E008959FEF80EC0895AC
:10230000DF93CF931F930F93FF92EF92DF927B01A6
:102310008C01689406C0DA2EEF010E940F12FE01B4
:10232000E894A5912591359145915591A6F3EF013A
:102330000E94A20FFE019701A801DA9469F7DF90CD
:10234000EF90FF900F911F91CF91DF91089500249E
:102350000A941616170618060906089500240A940A
:1023600012161306140605060895092E0394000C90
:1023700011F4882352F0BB0F40F4BF2B11F460FF1F
:1023800004C06F5F7F4F8F4F9F4F089557FD905848
:10239000440F551F59F05F3F71F04795880F97FB29
:1023A000991F61F09F3F79F08795089512161306E3
:1023B0001406551FF2CF4695F1DF08C01616170612
:1023C0001806991FF1CF8695710561050894089547
:1023D000E894BB2766277727CB0197F908950E94D9
:1023E000531108F48FEF08959B01AC0160E070E099
:1023F00080E89FE30C946E100E940F120C94B511AC
:102400000E94A71138F00E94AE1120F0952311F020
:102410000C9477110C947D1111240C94E9110E94F5
:10242000C61170F3959FC1F3950F50E0551F629F41
:10243000F001729FBB27F00DB11D639FAA27F00D1D
:10244000B11DAA1F649F6627B00DA11D661F829F44
:102450002227B00DA11D621F739FB00DA11D621F29
:10246000839FA00D611D221F749F3327A00D611D46
:10247000231F849F600D211D822F762F6A2F112428
:102480009F5750409AF0F1F088234AF0EE0FFF1F5B
:10249000BB1F661F771F881F91505040A9F79E3FB2
:1024A000510580F00C9477110C94E9115F3FE4F32F
:1024B000983ED4F3869577956795B795F795E79508
:1024C0009F5FC1F7FE2B880F911D9695879597F911
:1024D00008959B01AC010C94FC110E945311880BD0
:1024E000990B0895A1E21A2EAA1BBB1BFD010DC07A
:1024F000AA1FBB1FEE1FFF1FA217B307E407F507B4
:1025000020F0A21BB30BE40BF50B661F771F881F8F
:10251000991F1A9469F760957095809590959B0125
:10252000AC01BD01CF010895EE0FFF1F0590F4919E
:10253000E02D0994F894FFCF000000010000010194
:102540000000010000010100000100000101000085
:102550000100000001000001000000000A026A0101
:1025600097017202C801A601BA0100000000B00480
:102570008304E40460046101700461040D0A003EF8
:10258000206E61636B006E616E00696E66006F762F
:1025900066005374617274696E67204C696461727D
:1025A000000A47583A200047593A200041583A203B
:1025B0000041593A20004B583A2020004B593A200C
:1025C000200044697374616E63653A2020003E20E8
:1025D00072656164206661696C656400636D0053B7
:1025E000746570733A202000416E676C653A202054
:0225F0000000E9
:107E0000112484B714BE81FFF0D085E080938100F7
:107E100082E08093C00088E18093C10086E0809377
:107E2000C20080E18093C4008EE0C9D0259A86E02C
:107E300020E33CEF91E0309385002093840096BBD3
:107E4000B09BFECF1D9AA8958150A9F7CC24DD24C4
:107E500088248394B5E0AB2EA1E19A2EF3E0BF2EE7
:107E6000A2D0813461F49FD0082FAFD0023811F036
:107E7000013811F484E001C083E08DD089C08234E0
:107E800011F484E103C0853419F485E0A6D080C0E4
:107E9000853579F488D0E82EFF2485D0082F10E0AE
:107EA000102F00270E291F29000F111F8ED06801E7
:107EB0006FC0863521F484E090D080E0DECF843638
:107EC00009F040C070D06FD0082F6DD080E0C81688
:107ED00080E7D80618F4F601B7BEE895C0E0D1E017
:107EE00062D089930C17E1F7F0E0CF16F0E7DF06D8
:107EF00018F0F601B7BEE89568D007B600FCFDCFD4
:107F0000A601A0E0B1E02C9130E011968C91119780
:107F100090E0982F8827822B932B1296FA010C0160
:107F200087BEE89511244E5F5F4FF1E0A038BF0790
:107F300051F7F601A7BEE89507B600FCFDCF97BE46
:107F4000E89526C08437B1F42ED02DD0F82E2BD052
:107F50003CD0F601EF2C8F010F5F1F4F84911BD097
:107F6000EA94F801C1F70894C11CD11CFA94CF0C13
:107F7000D11C0EC0853739F428D08EE10CD085E9AC
:107F80000AD08FE07ACF813511F488E018D01DD067
:107F900080E101D065CF982F8091C00085FFFCCF94
:107FA0009093C60008958091C00087FFFCCF809118
:107FB000C00084FD01C0A8958091C6000895E0E648
:107FC000F0E098E1908380830895EDDF803219F02E
:107FD00088E0F5DFFFCF84E1DECF1F93182FE3DFCA
:107FE0001150E9F7F2DF1F91089580E0E8DFEE27F6
:047FF000FF270994CA
:027FFE00040479
:00000001FF
