:100000000C9462000C948A000C948A000C948A0070
:100010000C948A000C948A000C948A000C948A0038
:100020000C948A000C948A000C948A000C948A0028
:100030000C948A000C948A000C948A000C948A0018
:100040000C9430060C948A000C94FE050C94D80590
:100050000C948A000C948A000C948A000C948A00F8
:100060000C947A060C948A000000000024002700FB
:100070002A0000000000250028002B0000000000DE
:1000800023002600290004040404040404040202DA
:100090000202020203030303030301020408102007
:1000A0004080010204081020010204081020000012
:1000B0000008000201000003040700000000000027
:1000C0000000950711241FBECFEFD8E0DEBFCDBFE3
:1000D00011E0A0E0B1E0EEE0F8E102C005900D9281
:1000E000AC3CB107D9F722E0ACECB1E001C01D9205
:1000F000AB3EB207E1F710E0C2E6D0E004C02197C2
:10010000FE010E94DA0AC136D107C9F70E9405082C
:100110000C94050C0C940000AF92BF92CF92DF922A
:10012000EF92FF920F931F93CF93DF936C017B01AC
:100130008B01040F151FEB015E01AE18BF08C0173D
:10014000D10759F06991D601ED91FC910190F081B0
:10015000E02DC6010995892B79F7C501DF91CF9173
:100160001F910F91FF90EF90DF90CF90BF90AF90D5
:100170000895FC01538D448D252F30E0842F90E0AD
:10018000821B930B541710F0CF9608950197089592
:10019000FC01918D828D981761F0A28DAE0FBF2F5B
:1001A000B11D5D968C91928D9F5F9F73928F90E0B1
:1001B00008958FEF9FEF0895FC01918D828D981720
:1001C00031F0828DE80FF11D858D90E008958FEF5D
:1001D0009FEF0895FC01918D228D892F90E0805C26
:1001E0009F4F821B91098F739927089580E492E0B5
:1001F0000E94EA0021E0892B09F420E0822F089573
:1002000080E090E0892B29F00E94F60081110C9487
:1002100000000895FC01A48DA80FB92FB11DA35AA9
:10022000BF4F2C91848D90E001968F739927848F16
:10023000A689B7892C93A089B1898C918370806439
:100240008C93938D848D981306C00288F389E02DDA
:1002500080818F7D80830895EF92FF920F931F938B
:10026000CF93DF93EC0181E0888F9B8D8C8D981369
:100270001AC0E889F989808185FF15C09FB7F89475
:10028000EE89FF896083E889F989808183708064C1
:1002900080839FBF81E090E0DF91CF911F910F910C
:1002A000FF90EF900895F62E0B8D10E00F5F1F4F1B
:1002B0000F731127E02E8C8D8E110CC00FB607FC2A
:1002C000FACFE889F989808185FFF5CFCE010E94B8
:1002D0000A01F1CFEB8DEC0FFD2FF11DE35AFF4F1B
:1002E000F0829FB7F8940B8FEA89FB898081806246
:1002F000CFCFCF93DF93EC01888D8823B9F0AA8903
:10030000BB89E889F9898C9185FD03C0808186FDD0
:100310000DC00FB607FCF7CF8C9185FFF2CF80811F
:1003200085FFEDCFCE010E940A01E9CFDF91CF9189
:100330000895833081F028F4813099F08230A9F05B
:1003400008958730A9F08830C9F08430B1F48091E5
:1003500080008F7D03C0809180008F778093800024
:10036000089584B58F7784BD089584B58F7DFBCFC4
:100370008091B0008F778093B00008958091B00095
:100380008F7DF9CFCF93DF93282F30E0F901E2552D
:10039000FF4F8491F901E656FF4FD491F901EA57D6
:1003A000FF4FC491CC23A1F081110E949901EC2F41
:1003B000F0E0EE0FFF1FE458FF4FA591B491EC91D0
:1003C000ED2381E090E009F480E0DF91CF91089582
:1003D00080E090E0FACF1F93CF93DF93282F30E097
:1003E000F901E255FF4F8491F901E656FF4FD49190
:1003F000F901EA57FF4FC491CC23A9F0162F8111C0
:100400000E949901EC2FF0E0EE0FFF1FEE58FF4F16
:10041000A591B4918FB7F894EC91111108C0D095C3
:10042000DE23DC938FBFDF91CF911F910895DE2BE8
:10043000F8CFCF93DF9390E0FC01E656FF4F249175
:100440008A579F4FFC0184918823D1F090E0880F58
:10045000991FFC01E859FF4FA591B491FC01EE589A
:10046000FF4FC591D49161110EC09FB7F8948C9144
:10047000E22FE0958E238C932881E223E8839FBFAF
:10048000DF91CF9108958FB7F894EC91E22BEC9324
:100490008FBFF6CF3FB7F89480913C0290913D0218
:1004A000A0913E02B0913F0226B5A89B05C02F3F08
:1004B00019F00196A11DB11D3FBFBA2FA92F982F8A
:1004C0008827BC01CD01620F711D811D911D42E085
:1004D000660F771F881F991F4A95D1F708952F92AD
:1004E0003F924F925F926F927F928F929F92AF92C4
:1004F000BF92CF92DF92EF92FF920F931F93CF9311
:10050000DF93CDB7DEB7AC970FB6F894DEBF0FBE62
:10051000CDBF6C0180E2EBE1F1E0DE0111960190CC
:100520000D928A95E1F777FDB3C021E030E03AA360
:1005300029A31B0177FF03C0319421943108D10115
:1005400023E0B595A7952A95E1F7BEA3ADA310E0EA
:1005500000E089A19AA1092E000CAA0BBB0B8FA366
:1005600098A7A9A7BAA7D6011A96BCA7ABA71CA2A1
:100570001BA2F12CE12CE214F3040CF065C0F6018F
:1005800040805180052C000C660877080E944A02C2
:100590004B015C01411451046104710409F08EC0E7
:1005A0006FA178A589A59AA50E94BF0920E030E037
:1005B00040E650E40E944B0A9B01AC0160E070E011
:1005C00080E690E40E941A092B013C01ABA1BCA17A
:1005D000BD01BB0F880B990B0E94BF099B01AC01A9
:1005E000C301B2010E941B090E948709660F771F91
:1005F000660F771FAA24A394B12CAC0EBD1EA60EC5
:10060000B71E3601B2E06B0E711CF50161915F01FE
:10061000D3018C91B2E06B0E711C0E94EB01EBA533
:10062000FCA56E167F0689F7FFEFEF1AFF0A2BA1D4
:100630003CA189A19AA1280F391F3CA32BA398E0C4
:10064000E916F10409F097CF0F5F1F4FA8E02A1AAF
:100650003108EDA1FEA1E017F1070CF088CFAC96B0
:100660000FB6F894DEBF0FBECDBFDF91CF911F91C3
:100670000F91FF90EF90DF90CF90BF90AF909F9041
:100680008F907F906F905F904F903F902F90089544
:100690008FEF9FEF9AA389A34CCFF1E04F1A510837
:1006A0006108710828EE820E23E0921EA11CB11C85
:1006B000411451046104710409F46CCF0E944A0290
:1006C000681979098A099B09683E7340810591057B
:1006D00020F760CF85ED8093BC008091BC0084FD45
:1006E000FCCF1092110208952091ED01260F3327BF
:1006F000331F21323105ECF420911102FC0190E00E
:1007000080E0243069F082E00895A091ED0121910C
:10071000AC0143535E4FA40FB52FB11D2C9301962E
:10072000861798F38091ED01680F6093ED0180E0EA
:10073000089581E0089508958FEF9FEF08958FEF5A
:100740009FEF08958091CC0190E09195819591095A
:100750000895CF93DF93CB01EA01642F0E947403C5
:10076000CE01DF91CF910895CF93DF931F92CDB744
:10077000DEB7698361E0CE0101960E94740381E0D7
:1007800090E00F90DF91CF91089590E080E0089580
:10079000FC0101900020E9F73197AF01481B590B8C
:1007A000BC0180E492E00C948C00CF93DF930E9414
:1007B000C803EC018DE491E00E94C8038C0F9D1FDB
:1007C000DF91CF9108950C94C8038F929F92AF92BE
:1007D000BF92CF92DF92EF92FF920F931F93CF932E
:1007E000DF93CDB7DEB7A1970FB6F894DEBF0FBE8B
:1007F000CDBF6C01990FEE08FF08F7FE41C06DE216
:1008000080E492E00E942C018C0122273327A90169
:100810002C193D094E095F0919A2CE0181967C0170
:100820009AE0892E912CA12CB12CCA01B901A50105
:1008300094010E94B80A605DF70162937F0121155F
:1008400031054105510589F790E080E0309719F0B6
:10085000CF010E94C803800F911FA1960FB6F89494
:10086000DEBF0FBECDBFDF91CF911F910F91FF90E3
:10087000EF90DF90CF90BF90AF909F908F900895B2
:10088000A701960119A28E010F5D1F4F8AE0C82EA5
:10089000D12CE12CF12CCA01B901A70196010E94CB
:1008A000B80A605DF80162938F0121153105410599
:1008B000510589F790E080E0309779F2CF010E94EE
:1008C000C803CBCF209108013091090180910A0122
:1008D00090910B012817390709F4B1C0281739077F
:1008E0000CF071C061E08DE00E94EB0181E090E0CE
:1008F00090930F0180930E0180910801909109015E
:1009000020910C0130910D01820F931F90930901EA
:100910008093080180910E0190910F018130910523
:1009200009F466C0029709F46EC010921401209178
:1009300008013091090180910A0190910B0128175B
:100940003907E1F180E591E00E94E303809108011D
:10095000909109010E94E5038BE591E00E94E30379
:1009600080910A0190910B010E94E5038BE691E0D2
:100970000E94E30380910E0190910F01009709F40A
:1009800058C00CF048C0019609F456C087E991E0C0
:100990000E94E303809110010E94C2010E94E503BE
:1009A00080EA91E00E94E303809112010E94C2015B
:1009B0000E94E5038DE491E00E94C80380910E013E
:1009C00090910F01089560E08DE00E94EB0182E0BC
:1009D00090E090930F0180930E0180910801909117
:1009E000090120910C0130910D01821B930B8ECFD8
:1009F00060910C0170910D018091000190910101B5
:100A00000E946F0292CF60910C0170910D0171955F
:100A100061957109F1CF8130910531F0029709F0AC
:100A2000B5CF81E891E002C089E791E00E94E3033D
:100A3000ADCF8AE891E0FACF8FE891E0F7CF8091CF
:100A400014018111BBCF81E08093140110920F013A
:100A500010920E0180E591E00E94E303809108016D
:100A6000909109010E94E5038BE591E00E94E30368
:100A700080910A0190910B010E94E5038BE691E0C1
:100A80000E94E30380910E0190910F010097A9F05D
:100A900034F4019609F092CF8FE891E00BC08130D9
:100AA000910531F0029709F089CF81E891E002C009
:100AB00089E791E00E94D50381CF8AE891E0FACFDF
:100AC0000F931F93CF93DF938C0180910601909138
:100AD0000701089FE001099FD00D189FD00D112438
:100AE00081E090E0D7FF02C082E090E090930F0198
:100AF00080930E0180910A0190910B018C0F9D1F34
:100B000090930B0180930A0180E591E00E94E3033A
:100B100080910801909109010E94E50388EA91E023
:100B20000E94E303CE010E94E5038BE591E00E9461
:100B3000E30380910A0190910B010E94E5038BE68B
:100B400091E00E94E30380910E0190910F010097C4
:100B500049F1DCF4019649F183EB91E00E94E30353
:100B600080910601909107010E94E50381EC91E0DC
:100B70000E94E303C8010E94E5038DE491E0DF9148
:100B8000CF911F910F910C94C8038130910529F0EA
:100B9000029711F781E891E002C089E791E00E9495
:100BA000E303DACF8AE891E0FACF8FE891E0F7CF5C
:100BB0001F920F920FB60F9211242F933F934F93D2
:100BC0005F936F937F938F939F93AF93BF93EF93B5
:100BD000FF9380E492E00E940A01FF91EF91BF91A0
:100BE000AF919F918F917F916F915F914F913F91C5
:100BF0002F910F900FBE0F901F9018951F920F927C
:100C00000FB60F9211242F938F939F93EF93FF931F
:100C1000E0915002F09151028081E0915602F091F2
:100C2000570282FD1BC09081809159028F5F8F73A4
:100C300020915A02821741F0E0915902F0E0E05C05
:100C4000FD4F958F80935902FF91EF919F918F9166
:100C50002F910F900FBE0F901F9018958081F4CFA9
:100C60001F920F920FB60F9211242F933F938F93E1
:100C70009F93AF93BF938091380290913902A091D6
:100C80003A02B0913B023091370223E0230F2D3717
:100C900058F50196A11DB11D2093370280933802AB
:100CA00090933902A0933A02B0933B0280913C02A8
:100CB00090913D02A0913E02B0913F020196A11D8C
:100CC000B11D80933C0290933D02A0933E02B093ED
:100CD0003F02BF91AF919F918F913F912F910F90C4
:100CE0000FBE0F901F90189526E8230F0296A11DA6
:100CF000B11DD2CF1F920F920FB60F9211242F93D6
:100D00003F934F935F936F937F938F939F93AF9393
:100D1000BF93EF93FF938091B900887F803609F4E9
:100D20004AC0F0F5883209F4A5C018F5803109F4FD
:100D300099C0B8F4882309F4F5C0883009F492C04A
:100D4000FF91EF91BF91AF919F918F917F916F91A3
:100D50005F914F913F912F910F900FBE0F901F9079
:100D60001895883109F486C0803251F780931002BB
:100D700014C0803409F49BC040F48033B9F3883345
:100D8000F9F68093100285ECAEC0803509F483C07B
:100D9000883509F494C0883499F60E946A03D0CF4C
:100DA000883909F48AC038F5883729F050F4883634
:100DB00011F0803729F683E08093110210920F0220
:100DC00055C0883809F479C0803919F0803809F0A5
:100DD000B7CF80910F02803208F06FC0E0910F0210
:100DE00081E08E0F80930F028091BB00F0E0E15113
:100DF000FE4F80833BC0803B39F0D0F4803A09F449
:100E000077C0883A09F09CCF84E080931102109259
:100E1000EE011092ED01F0E0E0E009958091ED0126
:100E200081110FC081E08093ED011092CD0109C0C6
:100E3000803C09F4A8CF883C09F4A5CF883B09F091
:100E40007FCFE091EE0181E08E0F8093EE01F0E024
:100E5000E353FE4F80818093BB009091EE0180911F
:100E6000ED0129C0809136028093BB0085EC809310
:100E7000BC0066CF9091350280913402981758F5E6
:100E8000E091350281E08E0F80933502F0E0EC5E58
:100E9000FD4F8081E9CFE091350281E08E0F809394
:100EA00035028091BB00F0E0EC5EFD4F80839091B5
:100EB0003502809134029817C8F285E8D8CFE091C6
:100EC000350281E08E0F809335028091BB00F0E007
:100ED000EC5EFD4F80838091130281115ECF81E033
:100EE0008093120284EA8093BC001092110228CFF2
:100EF00085EC8093BC001092110280910F02803229
:100F000030F4E0910F02F0E0E151FE4F1082609169
:100F10000F0270E08FEE91E0F0E0E0E009951092B2
:100F20000F020ECF1092100238CFCF93DF931092A2
:100F300043021092420288EE93E0A0E0B0E080937A
:100F4000440290934502A0934602B09347028FE378
:100F500091E0909341028093400285EC90E0909361
:100F60004D0280934C0284EC90E090934F0280936A
:100F70004E0280EC90E0909351028093500281ECFD
:100F800090E0909353028093520282EC90E0909311
:100F900055028093540286EC90E090935702809320
:100FA00056021092590210925A0210925B0210924D
:100FB0005C0282E090E09093E0028093DF0283E0A5
:100FC00090E09093E2028093E10284E090E09093BD
:100FD000E4028093E30285E090E09093E602809340
:100FE000E502CFEDD2E08881229661E00E941902ED
:100FF00082E0C73ED807B9F782E390E09093DE0223
:101000008093DD02DF91CF910895789484B582605A
:1010100084BD84B5816084BD85B5826085BD85B59C
:10102000816085BD80916E00816080936E0010921A
:101030008100809181008260809381008091810095
:101040008160809381008091800081608093800026
:101050008091B10084608093B1008091B000816084
:101060008093B00080917A00846080937A008091B0
:101070007A00826080937A0080917A008160809308
:101080007A0080917A00806880937A001092C10083
:10109000E0915002F091510282E08083E0914C0295
:1010A000F0914D021082E0914E02F0914F0280E1EA
:1010B000808310925802E0915402F091550286E02C
:1010C0008083E0915202F09153028081806180839D
:1010D000E0915202F0915302808188608083E09118
:1010E0005202F0915302808180688083E091520225
:1010F000F091530280818F7D808361E08DE00E94BA
:10110000190260E08DE00E94EB0104E010E0109312
:1011100003010093020184EB90E190930501809319
:1011200004018CE090E090930701809306011092F7
:101130000B0110920A0188E090E090930D018093DA
:101140000C0181E090E090930F0180930E018AE002
:1011500090E00E94E00AEC0182E090E09B838A83A9
:1011600083E090E09D838C831F830E8385E090E075
:10117000998788878E010E5F1F4F7E018AE0E80EF7
:10118000F11CF80180810E5F1F4F61E00E9419027F
:10119000E016F106B1F7D0930101C09300018091F0
:1011A0000201909103019983888386E090E09093F7
:1011B00011018093100187E090E0909313018093D8
:1011C000120160E086E00E94190260E08091120145
:1011D0000E94190288EC90E00E9460050E9462045F
:1011E000809112010E94C2010197F9F488E99EEFF3
:1011F0000E9460050E946204809110010E94C20159
:101200000197C1F7109209011092080110920B0189
:1012100010920A01C0E0D0E02097F1F30E94F6009E
:101220008823D1F30E940000F7CF809110010E9423
:10123000C201D4CF5058BB27AA270E9432090C9470
:10124000110A0E94030A38F00E940A0A20F039F4B9
:101250009F3F19F426F40C94000A0EF4E095E7FB86
:101260000C94FA09E92F0E94220A58F3BA17620770
:1012700073078407950720F079F4A6F50C94440AC7
:101280000EF4E0950B2EBA2FA02D0B01B9019001A1
:101290000C01CA01A0011124FF27591B99F0593FE5
:1012A00050F4503E68F11A16F040A22F232F342F2D
:1012B0004427585FF3CF469537952795A795F0407B
:1012C0005395C9F77EF41F16BA0B620B730B840B90
:1012D000BAF09150A1F0FF0FBB1F661F771F881F48
:1012E000C2F70EC0BA0F621F731F841F48F48795A0
:1012F00077956795B795F7959E3F08F0B0CF939592
:10130000880F08F09927EE0F9795879508950E940A
:101310008E096894B1110C94450A08950E942A0A16
:1013200088F09F5798F0B92F9927B751B0F0E1F0A6
:10133000660F771F881F991F1AF0BA95C9F714C056
:10134000B13091F00E94440AB1E008950C94440A2F
:10135000672F782F8827B85F39F0B93FCCF386958F
:1013600077956795B395D9F73EF4909580957095EC
:1013700061957F4F8F4F9F4F0895E89409C097FB69
:101380003EF490958095709561957F4F8F4F9F4F5C
:101390009923A9F0F92F96E9BB279395F6958795A0
:1013A00077956795B795F111F8CFFAF4BB0F11F463
:1013B00060FF1BC06F5F7F4F8F4F9F4F16C088230A
:1013C00011F096E911C0772321F09EE8872F762F40
:1013D00005C0662371F096E8862F70E060E02AF081
:1013E0009A95660F771F881FDAF7880F969587956D
:1013F00097F9089597F99F6780E870E060E0089595
:101400009FEF80EC089500240A941616170618061C
:101410000906089500240A941216130614060506F8
:101420000895092E0394000C11F4882352F0BB0F89
:1014300040F4BF2B11F460FF04C06F5F7F4F8F4FEC
:101440009F4F089557FD9058440F551F59F05F3F27
:1014500071F04795880F97FB991F61F09F3F79F0D6
:1014600087950895121613061406551FF2CF469558
:10147000F1DF08C0161617061806991FF1CF8695DA
:101480007105610508940895E894BB2766277727BE
:10149000CB0197F908950E945E0A0C94110A0E94EC
:1014A000030A38F00E940A0A20F0952311F00C94E8
:1014B000FA090C94000A11240C94450A0E94220A8D
:1014C00070F3959FC1F3950F50E0551F629FF00197
:1014D000729FBB27F00DB11D639FAA27F00DB11DB0
:1014E000AA1F649F6627B00DA11D661F829F222739
:1014F000B00DA11D621F739FB00DA11D621F839FC0
:10150000A00D611D221F749F3327A00D611D231F95
:10151000849F600D211D822F762F6A2F11249F57E3
:1015200050409AF0F1F088234AF0EE0FFF1FBB1FE6
:10153000661F771F881F91505040A9F79E3F5105A5
:1015400080F00C94FA090C94450A5F3FE4F3983E4E
:10155000D4F3869577956795B795F795E7959F5F4F
:10156000C1F7FE2B880F911D9695879597F90895E1
:10157000A1E21A2EAA1BBB1BFD010DC0AA1FBB1F97
:10158000EE1FFF1FA217B307E407F50720F0A21B09
:10159000B30BE40BF50B661F771F881F991F1A9476
:1015A00069F760957095809590959B01AC01BD01A0
:1015B000CF010895EE0FFF1F0590F491E02D0994DF
:1015C0000F931F93CF93DF938230910510F482E045
:1015D00090E0E091E902F091EA0230E020E0B0E032
:1015E000A0E0309799F42115310509F44AC0281B71
:1015F000390B24303105D8F58A819B81611571053D
:1016000089F1FB0193838283FE0111C040815181E6
:101610000281138148175907E0F04817590799F4D8
:10162000109761F012960C93129713961C933296B2
:10163000CF01DF91CF911F910F9108950093E9029F
:101640001093EA02F4CF2115310551F042175307E8
:1016500038F0A901DB019A01BD01DF01F801C1CF1A
:10166000EF01F9CF9093EA028093E902CDCFFE011A
:10167000E20FF31F8193919322503109398328831C
:10168000D7CF2091E7023091E802232B41F420913B
:101690001701309118013093E8022093E70220915E
:1016A0001501309116012115310541F42DB73EB7D2
:1016B0004091190150911A01241B350BE091E7026A
:1016C000F091E802E217F307A0F42E1B3F0B281756
:1016D000390778F0AC014E5F5F4F2417350748F0AB
:1016E0004E0F5F1F5093E8024093E702819391935E
:1016F0009FCFF0E0E0E09CCFCF93DF930097E9F03D
:10170000FC01329713821282A091E902B091EA02A1
:10171000ED0130E020E01097A1F420813181820FAB
:10172000931F2091E7023091E8022817390709F04A
:1017300061C0F093E802E093E702DF91CF91089552
:10174000EA01CE17DF07E8F54A815B819E0141156A
:101750005105B1F7E901FB83EA8349915991C40F1F
:10176000D51FEC17FD0761F4808191810296840FEB
:10177000951FE90199838883828193819B838A8362
:10178000F0E0E0E012968D919C9113970097B9F5E7
:101790002D913C911197CD010296820F931F2091BC
:1017A000E7023091E8022817390739F6309751F5EA
:1017B0001092EA021092E902B093E802A093E702C5
:1017C000BCCFD383C28340815181840F951FC8173A
:1017D000D90761F44E5F5F4F88819981480F591F87
:1017E000518340838A819B819383828321153105B4
:1017F00009F0B0CFF093EA02E093E9029ECFFD0139
:0E180000DC01C0CF13821282D7CFF894FFCF45
:10180E0000000800780F0000000000000800FFFF35
:10181E0007000600010000EB02800000000001003E
:10182E0000010100000100000101000001000001A3
:10183E000100000100000001000001000000002C6A
:10184E00018C00B9007901EA00C800DC000D0A0025
:10185E00506F736974696F6E3A200009094465739D
:10186E0074696E6174696F6E3A2000090944697279
:10187E00656374696F6E3A2000464F525741524469
:10188E00004241434B5741524400484F4C4400558F
:10189E006E6B6E6F776E000909535453313A200008
:1018AE0020535453323A200009094F66667365740B
:1018BE003A2000090953746570732F4465673A2006
:0C18CE00000909416E676C653A200000BB
:00000001FF
